{"abi":[{"type":"constructor","inputs":[{"name":"_stablecoin","type":"address","internalType":"address"},{"name":"_nft","type":"address","internalType":"address"}],"stateMutability":"nonpayable"},{"type":"function","name":"collateralizeNFT","inputs":[{"name":"_loanId","type":"uint256","internalType":"uint256"},{"name":"_tokenId","type":"uint256","internalType":"uint256"}],"outputs":[],"stateMutability":"nonpayable"},{"type":"function","name":"getLoanDetails","inputs":[{"name":"_loanId","type":"uint256","internalType":"uint256"}],"outputs":[{"name":"borrower","type":"address","internalType":"address"},{"name":"amount","type":"uint256","internalType":"uint256"},{"name":"interestRate","type":"uint256","internalType":"uint256"},{"name":"duration","type":"uint256","internalType":"uint256"},{"name":"startTime","type":"uint256","internalType":"uint256"},{"name":"repaid","type":"bool","internalType":"bool"}],"stateMutability":"view"},{"type":"function","name":"loanCounter","inputs":[],"outputs":[{"name":"","type":"uint256","internalType":"uint256"}],"stateMutability":"view"},{"type":"function","name":"loans","inputs":[{"name":"","type":"uint256","internalType":"uint256"}],"outputs":[{"name":"borrower","type":"address","internalType":"address"},{"name":"amount","type":"uint256","internalType":"uint256"},{"name":"interestRate","type":"uint256","internalType":"uint256"},{"name":"duration","type":"uint256","internalType":"uint256"},{"name":"startTime","type":"uint256","internalType":"uint256"},{"name":"repaid","type":"bool","internalType":"bool"}],"stateMutability":"view"},{"type":"function","name":"nft","inputs":[],"outputs":[{"name":"","type":"address","internalType":"contract IERC721"}],"stateMutability":"view"},{"type":"function","name":"nftCollateral","inputs":[{"name":"","type":"uint256","internalType":"uint256"}],"outputs":[{"name":"","type":"uint256","internalType":"uint256"}],"stateMutability":"view"},{"type":"function","name":"onERC721Received","inputs":[{"name":"","type":"address","internalType":"address"},{"name":"","type":"address","internalType":"address"},{"name":"","type":"uint256","internalType":"uint256"},{"name":"","type":"bytes","internalType":"bytes"}],"outputs":[{"name":"","type":"bytes4","internalType":"bytes4"}],"stateMutability":"nonpayable"},{"type":"function","name":"owner","inputs":[],"outputs":[{"name":"","type":"address","internalType":"address"}],"stateMutability":"view"},{"type":"function","name":"renounceOwnership","inputs":[],"outputs":[],"stateMutability":"nonpayable"},{"type":"function","name":"repayLoan","inputs":[{"name":"_loanId","type":"uint256","internalType":"uint256"}],"outputs":[],"stateMutability":"nonpayable"},{"type":"function","name":"requestLoan","inputs":[{"name":"_amount","type":"uint256","internalType":"uint256"},{"name":"_interestRate","type":"uint256","internalType":"uint256"},{"name":"_duration","type":"uint256","internalType":"uint256"}],"outputs":[],"stateMutability":"nonpayable"},{"type":"function","name":"stablecoin","inputs":[],"outputs":[{"name":"","type":"address","internalType":"contract IERC20"}],"stateMutability":"view"},{"type":"function","name":"transferOwnership","inputs":[{"name":"newOwner","type":"address","internalType":"address"}],"outputs":[],"stateMutability":"nonpayable"},{"type":"event","name":"LoanRepaid","inputs":[{"name":"loanId","type":"uint256","indexed":false,"internalType":"uint256"}],"anonymous":false},{"type":"event","name":"LoanRequested","inputs":[{"name":"loanId","type":"uint256","indexed":false,"internalType":"uint256"},{"name":"borrower","type":"address","indexed":false,"internalType":"address"},{"name":"amount","type":"uint256","indexed":false,"internalType":"uint256"},{"name":"interestRate","type":"uint256","indexed":false,"internalType":"uint256"},{"name":"duration","type":"uint256","indexed":false,"internalType":"uint256"}],"anonymous":false},{"type":"event","name":"NFTCollateralized","inputs":[{"name":"loanId","type":"uint256","indexed":false,"internalType":"uint256"},{"name":"tokenId","type":"uint256","indexed":false,"internalType":"uint256"}],"anonymous":false},{"type":"event","name":"NFTReleased","inputs":[{"name":"loanId","type":"uint256","indexed":false,"internalType":"uint256"},{"name":"tokenId","type":"uint256","indexed":false,"internalType":"uint256"}],"anonymous":false},{"type":"event","name":"OwnershipTransferred","inputs":[{"name":"previousOwner","type":"address","indexed":true,"internalType":"address"},{"name":"newOwner","type":"address","indexed":true,"internalType":"address"}],"anonymous":false},{"type":"error","name":"OwnableInvalidOwner","inputs":[{"name":"owner","type":"address","internalType":"address"}]},{"type":"error","name":"OwnableUnauthorizedAccount","inputs":[{"name":"account","type":"address","internalType":"address"}]},{"type":"error","name":"ReentrancyGuardReentrantCall","inputs":[]}],"bytecode":{"object":"0x608060405234801561001057600080fd5b50604051610e4e380380610e4e83398101604081905261002f91610103565b6001600055308061005a57604051631e4fbdf760e01b81526000600482015260240160405180910390fd5b61006381610095565b50600280546001600160a01b039384166001600160a01b03199182161790915560038054929093169116179055610136565b600180546001600160a01b038381166001600160a01b0319831681179093556040519116919082907f8be0079c531659141344cd1fd0a4f28419497f9722a3daafe3b4186f6b6457e090600090a35050565b80516001600160a01b03811681146100fe57600080fd5b919050565b6000806040838503121561011657600080fd5b61011f836100e7565b915061012d602084016100e7565b90509250929050565b610d09806101456000396000f3fe608060405234801561001057600080fd5b50600436106100cf5760003560e01c8063715018a61161008c578063e1ec3c6811610066578063e1ec3c6814610242578063e9cbd82214610292578063edadbbfe146102a5578063f2fde38b146102b857600080fd5b8063715018a6146102165780638da5cb5b1461021e578063ab7b1c891461022f57600080fd5b8063150b7a02146100d457806334d9289e1461011057806347ccca021461012757806366877b8d1461015257806368ff49bb146101e15780636dff1c0b146101f6575b600080fd5b6100f26100e2366004610a9f565b630a85bd0160e11b949350505050565b6040516001600160e01b031990911681526020015b60405180910390f35b61011960045481565b604051908152602001610107565b60035461013a906001600160a01b031681565b6040516001600160a01b039091168152602001610107565b6101a8610160366004610b83565b60008181526005602081905260409091208054600182015460028301546003840154600485015494909501546001600160a01b03909316949193909260ff1691939550919395565b604080516001600160a01b03909716875260208701959095529385019290925260608401526080830152151560a082015260c001610107565b6101f46101ef366004610b9c565b6102cb565b005b610119610204366004610b83565b60066020526000908152604090205481565b6101f461043d565b6001546001600160a01b031661013a565b6101f461023d366004610b83565b610451565b6101a8610250366004610b83565b60056020819052600091825260409091208054600182015460028301546003840154600485015494909501546001600160a01b03909316949193909260ff1686565b60025461013a906001600160a01b031681565b6101f46102b3366004610bbe565b61070e565b6101f46102c6366004610bea565b610989565b6102d36109c4565b600082815260056020526040902080546001600160a01b031633146103325760405162461bcd60e51b815260206004820152601060248201526f2737ba103a3432903137b93937bbb2b960811b60448201526064015b60405180910390fd5b600581015460ff161561037d5760405162461bcd60e51b8152602060048201526013602482015272131bd85b88185b1c9958591e481c995c185a59606a1b6044820152606401610329565b600354604051632142170760e11b81526001600160a01b03909116906342842e0e906103b190339030908790600401610c0c565b600060405180830381600087803b1580156103cb57600080fd5b505af11580156103df573d6000803e3d6000fd5b50505060008481526006602090815260409182902085905581518681529081018590527f74ae9e3be9b0626077a70bec4c1c6eec11a4b0b36f3e566a1d126dd3d3a60b4a92500160405180910390a1506104396001600055565b5050565b6104456109ee565b61044f6000610a1b565b565b6104596109c4565b600081815260056020526040902080546001600160a01b031633146104b35760405162461bcd60e51b815260206004820152601060248201526f2737ba103a3432903137b93937bbb2b960811b6044820152606401610329565b600581015460ff16156104fe5760405162461bcd60e51b8152602060048201526013602482015272131bd85b88185b1c9958591e481c995c185a59606a1b6044820152606401610329565b806003015481600401546105129190610c46565b42111561055a5760405162461bcd60e51b8152602060048201526016602482015275131bd85b88191d5c985d1a5bdb88195e18d95959195960521b6044820152606401610329565b60006064826002015483600101546105729190610c5f565b61057c9190610c76565b826001015461058b9190610c46565b6002546040516323b872dd60e01b81529192506001600160a01b0316906323b872dd906105c090339030908690600401610c0c565b6020604051808303816000875af11580156105df573d6000803e3d6000fd5b505050506040513d601f19601f820116820180604052508101906106039190610c98565b5060058201805460ff1916600117905560008381526006602052604080822080549290556003549051632142170760e11b81526001600160a01b03909116906342842e0e9061065a90309033908690600401610c0c565b600060405180830381600087803b15801561067457600080fd5b505af1158015610688573d6000803e3d6000fd5b505050507f9a7851747cd7ffb3fe0a32caf3da48b31f27cebe131267051640f8b72fc47186846040516106bd91815260200190565b60405180910390a160408051858152602081018390527fc1e20f1a2d27bf9504b1cfea3340c98b287dfe59ffdd2eac9930916d2fe1e2e3910160405180910390a150505061070b6001600055565b50565b6107166109c4565b600083116107665760405162461bcd60e51b815260206004820152601d60248201527f416d6f756e74206d7573742062652067726561746572207468616e20300000006044820152606401610329565b600082116107c25760405162461bcd60e51b8152602060048201526024808201527f496e7465726573742072617465206d75737420626520677265617465722074686044820152630616e20360e41b6064820152608401610329565b600081116108125760405162461bcd60e51b815260206004820152601f60248201527f4475726174696f6e206d7573742062652067726561746572207468616e2030006044820152606401610329565b6002546040516323b872dd60e01b81526001600160a01b03909116906323b872dd9061084690339030908890600401610c0c565b6020604051808303816000875af1158015610865573d6000803e3d6000fd5b505050506040513d601f19601f820116820180604052508101906108899190610c98565b506004805490600061089a83610cba565b90915550506040805160c0810182523380825260208083018781528385018781526060808601888152426080808901918252600060a0808b018281526004805484526005808c52938e90209c518d546001600160a01b0319166001600160a01b03909116178d55985160018d0155965160028c0155935160038b015591518987015593519701805460ff191697151597909717909655915486519081529283019390935293810187905292830185905282018390527ff6cc19e46a340ab5888d736bfc79aef72ae92d12d7b76319d72b0abc170868e6910160405180910390a16109846001600055565b505050565b6109916109ee565b6001600160a01b0381166109bb57604051631e4fbdf760e01b815260006004820152602401610329565b61070b81610a1b565b6002600054036109e757604051633ee5aeb560e01b815260040160405180910390fd5b6002600055565b6001546001600160a01b0316331461044f5760405163118cdaa760e01b8152336004820152602401610329565b600180546001600160a01b038381166001600160a01b0319831681179093556040519116919082907f8be0079c531659141344cd1fd0a4f28419497f9722a3daafe3b4186f6b6457e090600090a35050565b80356001600160a01b0381168114610a8457600080fd5b919050565b634e487b7160e01b600052604160045260246000fd5b60008060008060808587031215610ab557600080fd5b610abe85610a6d565b9350610acc60208601610a6d565b925060408501359150606085013567ffffffffffffffff811115610aef57600080fd5b8501601f81018713610b0057600080fd5b803567ffffffffffffffff811115610b1a57610b1a610a89565b604051601f8201601f19908116603f0116810167ffffffffffffffff81118282101715610b4957610b49610a89565b604052818152828201602001891015610b6157600080fd5b8160208401602083013760006020838301015280935050505092959194509250565b600060208284031215610b9557600080fd5b5035919050565b60008060408385031215610baf57600080fd5b50508035926020909101359150565b600080600060608486031215610bd357600080fd5b505081359360208301359350604090920135919050565b600060208284031215610bfc57600080fd5b610c0582610a6d565b9392505050565b6001600160a01b039384168152919092166020820152604081019190915260600190565b634e487b7160e01b600052601160045260246000fd5b80820180821115610c5957610c59610c30565b92915050565b8082028115828204841417610c5957610c59610c30565b600082610c9357634e487b7160e01b600052601260045260246000fd5b500490565b600060208284031215610caa57600080fd5b81518015158114610c0557600080fd5b600060018201610ccc57610ccc610c30565b506001019056fea264697066735822122064d5b4eb840386ea4b1be9f807e7d0c333c0f43529bbef9b8e0c317e8e13b06f64736f6c634300081a0033","linkReferences":{}},"methodIdentifiers":{"collateralizeNFT(uint256,uint256)":"68ff49bb","getLoanDetails(uint256)":"66877b8d","loanCounter()":"34d9289e","loans(uint256)":"e1ec3c68","nft()":"47ccca02","nftCollateral(uint256)":"6dff1c0b","onERC721Received(address,address,uint256,bytes)":"150b7a02","owner()":"8da5cb5b","renounceOwnership()":"715018a6","repayLoan(uint256)":"ab7b1c89","requestLoan(uint256,uint256,uint256)":"edadbbfe","stablecoin()":"e9cbd822","transferOwnership(address)":"f2fde38b"},"id":0}