{"abi":[{"type":"function","name":"doStuff","inputs":[{"name":"data","type":"uint256","internalType":"uint256"}],"outputs":[],"stateMutability":"nonpayable"},{"type":"function","name":"shouldAlwaysBeZero","inputs":[],"outputs":[{"name":"","type":"uint256","internalType":"uint256"}],"stateMutability":"view"}],"bytecode":{"object":"0x6080604052600080556000600155348015601857600080fd5b5060d18060266000396000f3fe6080604052348015600f57600080fd5b506004361060325760003560e01c806323bad5cd146037578063887ee7c1146048575b600080fd5b604660423660046083565b6062565b005b605060005481565b60405190815260200160405180910390f35b80600203606f5760016000555b600154600703607e5760016000555b600155565b600060208284031215609457600080fd5b503591905056fea2646970667358221220eacea6cbc66b8bdc4467cc0af9a6e1a331795cf423a1db1d9118fd8abb2b8ae364736f6c634300081a0033","linkReferences":{}},"methodIdentifiers":{"doStuff(uint256)":"23bad5cd","shouldAlwaysBeZero()":"887ee7c1"},"id":2}