{
  "contractName": "LendingBorrowing",
  "abi": [
    {
      "inputs": [
        {
          "internalType": "address",
          "name": "_stablecoin",
          "type": "address"
        },
        {
          "internalType": "address",
          "name": "_nft",
          "type": "address"
        }
      ],
      "stateMutability": "nonpayable",
      "type": "constructor"
    },
    {
      "inputs": [
        {
          "internalType": "address",
          "name": "owner",
          "type": "address"
        }
      ],
      "name": "OwnableInvalidOwner",
      "type": "error"
    },
    {
      "inputs": [
        {
          "internalType": "address",
          "name": "account",
          "type": "address"
        }
      ],
      "name": "OwnableUnauthorizedAccount",
      "type": "error"
    },
    {
      "inputs": [],
      "name": "ReentrancyGuardReentrantCall",
      "type": "error"
    },
    {
      "anonymous": false,
      "inputs": [
        {
          "indexed": false,
          "internalType": "uint256",
          "name": "loanId",
          "type": "uint256"
        }
      ],
      "name": "LoanRepaid",
      "type": "event"
    },
    {
      "anonymous": false,
      "inputs": [
        {
          "indexed": false,
          "internalType": "uint256",
          "name": "loanId",
          "type": "uint256"
        },
        {
          "indexed": false,
          "internalType": "address",
          "name": "borrower",
          "type": "address"
        },
        {
          "indexed": false,
          "internalType": "uint256",
          "name": "amount",
          "type": "uint256"
        },
        {
          "indexed": false,
          "internalType": "uint256",
          "name": "interestRate",
          "type": "uint256"
        },
        {
          "indexed": false,
          "internalType": "uint256",
          "name": "duration",
          "type": "uint256"
        }
      ],
      "name": "LoanRequested",
      "type": "event"
    },
    {
      "anonymous": false,
      "inputs": [
        {
          "indexed": false,
          "internalType": "uint256",
          "name": "loanId",
          "type": "uint256"
        },
        {
          "indexed": false,
          "internalType": "uint256",
          "name": "tokenId",
          "type": "uint256"
        }
      ],
      "name": "NFTCollateralized",
      "type": "event"
    },
    {
      "anonymous": false,
      "inputs": [
        {
          "indexed": false,
          "internalType": "uint256",
          "name": "loanId",
          "type": "uint256"
        },
        {
          "indexed": false,
          "internalType": "uint256",
          "name": "tokenId",
          "type": "uint256"
        }
      ],
      "name": "NFTReleased",
      "type": "event"
    },
    {
      "anonymous": false,
      "inputs": [
        {
          "indexed": true,
          "internalType": "address",
          "name": "previousOwner",
          "type": "address"
        },
        {
          "indexed": true,
          "internalType": "address",
          "name": "newOwner",
          "type": "address"
        }
      ],
      "name": "OwnershipTransferred",
      "type": "event"
    },
    {
      "inputs": [],
      "name": "loanCounter",
      "outputs": [
        {
          "internalType": "uint256",
          "name": "",
          "type": "uint256"
        }
      ],
      "stateMutability": "view",
      "type": "function"
    },
    {
      "inputs": [
        {
          "internalType": "uint256",
          "name": "",
          "type": "uint256"
        }
      ],
      "name": "loans",
      "outputs": [
        {
          "internalType": "address",
          "name": "borrower",
          "type": "address"
        },
        {
          "internalType": "uint256",
          "name": "amount",
          "type": "uint256"
        },
        {
          "internalType": "uint256",
          "name": "interestRate",
          "type": "uint256"
        },
        {
          "internalType": "uint256",
          "name": "duration",
          "type": "uint256"
        },
        {
          "internalType": "uint256",
          "name": "startTime",
          "type": "uint256"
        },
        {
          "internalType": "bool",
          "name": "repaid",
          "type": "bool"
        }
      ],
      "stateMutability": "view",
      "type": "function"
    },
    {
      "inputs": [],
      "name": "nft",
      "outputs": [
        {
          "internalType": "contract IERC721",
          "name": "",
          "type": "address"
        }
      ],
      "stateMutability": "view",
      "type": "function"
    },
    {
      "inputs": [
        {
          "internalType": "uint256",
          "name": "",
          "type": "uint256"
        }
      ],
      "name": "nftCollateral",
      "outputs": [
        {
          "internalType": "uint256",
          "name": "",
          "type": "uint256"
        }
      ],
      "stateMutability": "view",
      "type": "function"
    },
    {
      "inputs": [
        {
          "internalType": "address",
          "name": "",
          "type": "address"
        },
        {
          "internalType": "address",
          "name": "",
          "type": "address"
        },
        {
          "internalType": "uint256",
          "name": "",
          "type": "uint256"
        },
        {
          "internalType": "bytes",
          "name": "",
          "type": "bytes"
        }
      ],
      "name": "onERC721Received",
      "outputs": [
        {
          "internalType": "bytes4",
          "name": "",
          "type": "bytes4"
        }
      ],
      "stateMutability": "nonpayable",
      "type": "function"
    },
    {
      "inputs": [],
      "name": "owner",
      "outputs": [
        {
          "internalType": "address",
          "name": "",
          "type": "address"
        }
      ],
      "stateMutability": "view",
      "type": "function"
    },
    {
      "inputs": [],
      "name": "renounceOwnership",
      "outputs": [],
      "stateMutability": "nonpayable",
      "type": "function"
    },
    {
      "inputs": [],
      "name": "stablecoin",
      "outputs": [
        {
          "internalType": "contract IERC20",
          "name": "",
          "type": "address"
        }
      ],
      "stateMutability": "view",
      "type": "function"
    },
    {
      "inputs": [
        {
          "internalType": "address",
          "name": "newOwner",
          "type": "address"
        }
      ],
      "name": "transferOwnership",
      "outputs": [],
      "stateMutability": "nonpayable",
      "type": "function"
    },
    {
      "inputs": [
        {
          "internalType": "uint256",
          "name": "_amount",
          "type": "uint256"
        },
        {
          "internalType": "uint256",
          "name": "_interestRate",
          "type": "uint256"
        },
        {
          "internalType": "uint256",
          "name": "_duration",
          "type": "uint256"
        }
      ],
      "name": "requestLoan",
      "outputs": [],
      "stateMutability": "nonpayable",
      "type": "function"
    },
    {
      "inputs": [
        {
          "internalType": "uint256",
          "name": "_loanId",
          "type": "uint256"
        },
        {
          "internalType": "uint256",
          "name": "_tokenId",
          "type": "uint256"
        }
      ],
      "name": "collateralizeNFT",
      "outputs": [],
      "stateMutability": "nonpayable",
      "type": "function"
    },
    {
      "inputs": [
        {
          "internalType": "uint256",
          "name": "_loanId",
          "type": "uint256"
        }
      ],
      "name": "repayLoan",
      "outputs": [],
      "stateMutability": "nonpayable",
      "type": "function"
    },
    {
      "inputs": [
        {
          "internalType": "uint256",
          "name": "_loanId",
          "type": "uint256"
        }
      ],
      "name": "getLoanDetails",
      "outputs": [
        {
          "internalType": "address",
          "name": "borrower",
          "type": "address"
        },
        {
          "internalType": "uint256",
          "name": "amount",
          "type": "uint256"
        },
        {
          "internalType": "uint256",
          "name": "interestRate",
          "type": "uint256"
        },
        {
          "internalType": "uint256",
          "name": "duration",
          "type": "uint256"
        },
        {
          "internalType": "uint256",
          "name": "startTime",
          "type": "uint256"
        },
        {
          "internalType": "bool",
          "name": "repaid",
          "type": "bool"
        }
      ],
      "stateMutability": "view",
      "type": "function"
    }
  ],
  "bytecode": "0x608060405234801562000010575f80fd5b5060405162001bb238038062001bb2833981810160405281019062000036919062000273565b3060015f819055505f73ffffffffffffffffffffffffffffffffffffffff168173ffffffffffffffffffffffffffffffffffffffff1603620000b1575f6040517f1e4fbdf7000000000000000000000000000000000000000000000000000000008152600401620000a89190620002c9565b60405180910390fd5b620000c2816200014b60201b60201c565b508160025f6101000a81548173ffffffffffffffffffffffffffffffffffffffff021916908373ffffffffffffffffffffffffffffffffffffffff1602179055508060035f6101000a81548173ffffffffffffffffffffffffffffffffffffffff021916908373ffffffffffffffffffffffffffffffffffffffff1602179055505050620002e4565b5f60015f9054906101000a900473ffffffffffffffffffffffffffffffffffffffff1690508160015f6101000a81548173ffffffffffffffffffffffffffffffffffffffff021916908373ffffffffffffffffffffffffffffffffffffffff1602179055508173ffffffffffffffffffffffffffffffffffffffff168173ffffffffffffffffffffffffffffffffffffffff167f8be0079c531659141344cd1fd0a4f28419497f9722a3daafe3b4186f6b6457e060405160405180910390a35050565b5f80fd5b5f73ffffffffffffffffffffffffffffffffffffffff82169050919050565b5f6200023d8262000212565b9050919050565b6200024f8162000231565b81146200025a575f80fd5b50565b5f815190506200026d8162000244565b92915050565b5f80604083850312156200028c576200028b6200020e565b5b5f6200029b858286016200025d565b9250506020620002ae858286016200025d565b9150509250929050565b620002c38162000231565b82525050565b5f602082019050620002de5f830184620002b8565b92915050565b6118c080620002f25f395ff3fe608060405234801561000f575f80fd5b50600436106100cd575f3560e01c8063715018a61161008a578063e1ec3c6811610064578063e1ec3c6814610202578063e9cbd82214610237578063edadbbfe14610255578063f2fde38b14610271576100cd565b8063715018a6146101be5780638da5cb5b146101c8578063ab7b1c89146101e6576100cd565b8063150b7a02146100d157806334d9289e1461010157806347ccca021461011f57806366877b8d1461013d57806368ff49bb146101725780636dff1c0b1461018e575b5f80fd5b6100eb60048036038101906100e69190611070565b61028d565b6040516100f8919061112a565b60405180910390f35b6101096102a0565b6040516101169190611152565b60405180910390f35b6101276102a6565b60405161013491906111c6565b60405180910390f35b610157600480360381019061015291906111df565b6102cb565b60405161016996959493929190611233565b60405180910390f35b61018c60048036038101906101879190611292565b61038e565b005b6101a860048036038101906101a391906111df565b610572565b6040516101b59190611152565b60405180910390f35b6101c6610587565b005b6101d061059a565b6040516101dd91906112d0565b60405180910390f35b61020060048036038101906101fb91906111df565b6105c2565b005b61021c600480360381019061021791906111df565b610934565b60405161022e96959493929190611233565b60405180910390f35b61023f610997565b60405161024c9190611309565b60405180910390f35b61026f600480360381019061026a9190611322565b6109bc565b005b61028b60048036038101906102869190611372565b610c74565b005b5f63150b7a0260e01b9050949350505050565b60045481565b60035f9054906101000a900473ffffffffffffffffffffffffffffffffffffffff1681565b5f805f805f8060055f8881526020019081526020015f205f015f9054906101000a900473ffffffffffffffffffffffffffffffffffffffff1660055f8981526020019081526020015f206001015460055f8a81526020019081526020015f206002015460055f8b81526020019081526020015f206003015460055f8c81526020019081526020015f206004015460055f8d81526020019081526020015f206005015f9054906101000a900460ff1695509550955095509550955091939550919395565b610396610cf8565b5f60055f8481526020019081526020015f2090503373ffffffffffffffffffffffffffffffffffffffff16815f015f9054906101000a900473ffffffffffffffffffffffffffffffffffffffff1673ffffffffffffffffffffffffffffffffffffffff161461043a576040517f08c379a0000000000000000000000000000000000000000000000000000000008152600401610431906113f7565b60405180910390fd5b806005015f9054906101000a900460ff161561048b576040517f08c379a00000000000000000000000000000000000000000000000000000000081526004016104829061145f565b60405180910390fd5b60035f9054906101000a900473ffffffffffffffffffffffffffffffffffffffff1673ffffffffffffffffffffffffffffffffffffffff166342842e0e3330856040518463ffffffff1660e01b81526004016104e99392919061147d565b5f604051808303815f87803b158015610500575f80fd5b505af1158015610512573d5f803e3d5ffd5b505050508160065f8581526020019081526020015f20819055507f74ae9e3be9b0626077a70bec4c1c6eec11a4b0b36f3e566a1d126dd3d3a60b4a838360405161055d9291906114b2565b60405180910390a15061056e610d3c565b5050565b6006602052805f5260405f205f915090505481565b61058f610d45565b6105985f610dcc565b565b5f60015f9054906101000a900473ffffffffffffffffffffffffffffffffffffffff16905090565b6105ca610cf8565b5f60055f8381526020019081526020015f2090503373ffffffffffffffffffffffffffffffffffffffff16815f015f9054906101000a900473ffffffffffffffffffffffffffffffffffffffff1673ffffffffffffffffffffffffffffffffffffffff161461066e576040517f08c379a0000000000000000000000000000000000000000000000000000000008152600401610665906113f7565b60405180910390fd5b806005015f9054906101000a900460ff16156106bf576040517f08c379a00000000000000000000000000000000000000000000000000000000081526004016106b69061145f565b60405180910390fd5b806003015481600401546106d39190611506565b421115610715576040517f08c379a000000000000000000000000000000000000000000000000000000000815260040161070c90611583565b60405180910390fd5b5f60648260020154836001015461072c91906115a1565b610736919061160f565b82600101546107459190611506565b905060025f9054906101000a900473ffffffffffffffffffffffffffffffffffffffff1673ffffffffffffffffffffffffffffffffffffffff166323b872dd3330846040518463ffffffff1660e01b81526004016107a59392919061147d565b6020604051808303815f875af11580156107c1573d5f803e3d5ffd5b505050506040513d601f19601f820116820180604052508101906107e59190611669565b506001826005015f6101000a81548160ff0219169083151502179055505f60065f8581526020019081526020015f2054905060065f8581526020019081526020015f205f905560035f9054906101000a900473ffffffffffffffffffffffffffffffffffffffff1673ffffffffffffffffffffffffffffffffffffffff166342842e0e3033846040518463ffffffff1660e01b81526004016108899392919061147d565b5f604051808303815f87803b1580156108a0575f80fd5b505af11580156108b2573d5f803e3d5ffd5b505050507f9a7851747cd7ffb3fe0a32caf3da48b31f27cebe131267051640f8b72fc47186846040516108e59190611152565b60405180910390a17fc1e20f1a2d27bf9504b1cfea3340c98b287dfe59ffdd2eac9930916d2fe1e2e3848260405161091e9291906114b2565b60405180910390a1505050610931610d3c565b50565b6005602052805f5260405f205f91509050805f015f9054906101000a900473ffffffffffffffffffffffffffffffffffffffff1690806001015490806002015490806003015490806004015490806005015f9054906101000a900460ff16905086565b60025f9054906101000a900473ffffffffffffffffffffffffffffffffffffffff1681565b6109c4610cf8565b5f8311610a06576040517f08c379a00000000000000000000000000000000000000000000000000000000081526004016109fd906116de565b60405180910390fd5b5f8211610a48576040517f08c379a0000000000000000000000000000000000000000000000000000000008152600401610a3f9061176c565b60405180910390fd5b5f8111610a8a576040517f08c379a0000000000000000000000000000000000000000000000000000000008152600401610a81906117d4565b60405180910390fd5b60025f9054906101000a900473ffffffffffffffffffffffffffffffffffffffff1673ffffffffffffffffffffffffffffffffffffffff166323b872dd3330866040518463ffffffff1660e01b8152600401610ae89392919061147d565b6020604051808303815f875af1158015610b04573d5f803e3d5ffd5b505050506040513d601f19601f82011682018060405250810190610b289190611669565b5060045f815480929190610b3b906117f2565b91905055506040518060c001604052803373ffffffffffffffffffffffffffffffffffffffff1681526020018481526020018381526020018281526020014281526020015f151581525060055f60045481526020019081526020015f205f820151815f015f6101000a81548173ffffffffffffffffffffffffffffffffffffffff021916908373ffffffffffffffffffffffffffffffffffffffff1602179055506020820151816001015560408201518160020155606082015181600301556080820151816004015560a0820151816005015f6101000a81548160ff0219169083151502179055509050507ff6cc19e46a340ab5888d736bfc79aef72ae92d12d7b76319d72b0abc170868e660045433858585604051610c5f959493929190611839565b60405180910390a1610c6f610d3c565b505050565b610c7c610d45565b5f73ffffffffffffffffffffffffffffffffffffffff168173ffffffffffffffffffffffffffffffffffffffff1603610cec575f6040517f1e4fbdf7000000000000000000000000000000000000000000000000000000008152600401610ce391906112d0565b60405180910390fd5b610cf581610dcc565b50565b60025f5403610d33576040517f3ee5aeb500000000000000000000000000000000000000000000000000000000815260040160405180910390fd5b60025f81905550565b60015f81905550565b610d4d610e8f565b73ffffffffffffffffffffffffffffffffffffffff16610d6b61059a565b73ffffffffffffffffffffffffffffffffffffffff1614610dca57610d8e610e8f565b6040517f118cdaa7000000000000000000000000000000000000000000000000000000008152600401610dc191906112d0565b60405180910390fd5b565b5f60015f9054906101000a900473ffffffffffffffffffffffffffffffffffffffff1690508160015f6101000a81548173ffffffffffffffffffffffffffffffffffffffff021916908373ffffffffffffffffffffffffffffffffffffffff1602179055508173ffffffffffffffffffffffffffffffffffffffff168173ffffffffffffffffffffffffffffffffffffffff167f8be0079c531659141344cd1fd0a4f28419497f9722a3daafe3b4186f6b6457e060405160405180910390a35050565b5f33905090565b5f604051905090565b5f80fd5b5f80fd5b5f73ffffffffffffffffffffffffffffffffffffffff82169050919050565b5f610ed082610ea7565b9050919050565b610ee081610ec6565b8114610eea575f80fd5b50565b5f81359050610efb81610ed7565b92915050565b5f819050919050565b610f1381610f01565b8114610f1d575f80fd5b50565b5f81359050610f2e81610f0a565b92915050565b5f80fd5b5f80fd5b5f601f19601f8301169050919050565b7f4e487b71000000000000000000000000000000000000000000000000000000005f52604160045260245ffd5b610f8282610f3c565b810181811067ffffffffffffffff82111715610fa157610fa0610f4c565b5b80604052505050565b5f610fb3610e96565b9050610fbf8282610f79565b919050565b5f67ffffffffffffffff821115610fde57610fdd610f4c565b5b610fe782610f3c565b9050602081019050919050565b828183375f83830152505050565b5f61101461100f84610fc4565b610faa565b9050828152602081018484840111156110305761102f610f38565b5b61103b848285610ff4565b509392505050565b5f82601f83011261105757611056610f34565b5b8135611067848260208601611002565b91505092915050565b5f805f806080858703121561108857611087610e9f565b5b5f61109587828801610eed565b94505060206110a687828801610eed565b93505060406110b787828801610f20565b925050606085013567ffffffffffffffff8111156110d8576110d7610ea3565b5b6110e487828801611043565b91505092959194509250565b5f7fffffffff0000000000000000000000000000000000000000000000000000000082169050919050565b611124816110f0565b82525050565b5f60208201905061113d5f83018461111b565b92915050565b61114c81610f01565b82525050565b5f6020820190506111655f830184611143565b92915050565b5f819050919050565b5f61118e61118961118484610ea7565b61116b565b610ea7565b9050919050565b5f61119f82611174565b9050919050565b5f6111b082611195565b9050919050565b6111c0816111a6565b82525050565b5f6020820190506111d95f8301846111b7565b92915050565b5f602082840312156111f4576111f3610e9f565b5b5f61120184828501610f20565b91505092915050565b61121381610ec6565b82525050565b5f8115159050919050565b61122d81611219565b82525050565b5f60c0820190506112465f83018961120a565b6112536020830188611143565b6112606040830187611143565b61126d6060830186611143565b61127a6080830185611143565b61128760a0830184611224565b979650505050505050565b5f80604083850312156112a8576112a7610e9f565b5b5f6112b585828601610f20565b92505060206112c685828601610f20565b9150509250929050565b5f6020820190506112e35f83018461120a565b92915050565b5f6112f382611195565b9050919050565b611303816112e9565b82525050565b5f60208201905061131c5f8301846112fa565b92915050565b5f805f6060848603121561133957611338610e9f565b5b5f61134686828701610f20565b935050602061135786828701610f20565b925050604061136886828701610f20565b9150509250925092565b5f6020828403121561138757611386610e9f565b5b5f61139484828501610eed565b91505092915050565b5f82825260208201905092915050565b7f4e6f742074686520626f72726f776572000000000000000000000000000000005f82015250565b5f6113e160108361139d565b91506113ec826113ad565b602082019050919050565b5f6020820190508181035f83015261140e816113d5565b9050919050565b7f4c6f616e20616c726561647920726570616964000000000000000000000000005f82015250565b5f61144960138361139d565b915061145482611415565b602082019050919050565b5f6020820190508181035f8301526114768161143d565b9050919050565b5f6060820190506114905f83018661120a565b61149d602083018561120a565b6114aa6040830184611143565b949350505050565b5f6040820190506114c55f830185611143565b6114d26020830184611143565b9392505050565b7f4e487b71000000000000000000000000000000000000000000000000000000005f52601160045260245ffd5b5f61151082610f01565b915061151b83610f01565b9250828201905080821115611533576115326114d9565b5b92915050565b7f4c6f616e206475726174696f6e206578636565646564000000000000000000005f82015250565b5f61156d60168361139d565b915061157882611539565b602082019050919050565b5f6020820190508181035f83015261159a81611561565b9050919050565b5f6115ab82610f01565b91506115b683610f01565b92508282026115c481610f01565b915082820484148315176115db576115da6114d9565b5b5092915050565b7f4e487b71000000000000000000000000000000000000000000000000000000005f52601260045260245ffd5b5f61161982610f01565b915061162483610f01565b925082611634576116336115e2565b5b828204905092915050565b61164881611219565b8114611652575f80fd5b50565b5f815190506116638161163f565b92915050565b5f6020828403121561167e5761167d610e9f565b5b5f61168b84828501611655565b91505092915050565b7f416d6f756e74206d7573742062652067726561746572207468616e20300000005f82015250565b5f6116c8601d8361139d565b91506116d382611694565b602082019050919050565b5f6020820190508181035f8301526116f5816116bc565b9050919050565b7f496e7465726573742072617465206d75737420626520677265617465722074685f8201527f616e203000000000000000000000000000000000000000000000000000000000602082015250565b5f61175660248361139d565b9150611761826116fc565b604082019050919050565b5f6020820190508181035f8301526117838161174a565b9050919050565b7f4475726174696f6e206d7573742062652067726561746572207468616e2030005f82015250565b5f6117be601f8361139d565b91506117c98261178a565b602082019050919050565b5f6020820190508181035f8301526117eb816117b2565b9050919050565b5f6117fc82610f01565b91507fffffffffffffffffffffffffffffffffffffffffffffffffffffffffffffffff820361182e5761182d6114d9565b5b600182019050919050565b5f60a08201905061184c5f830188611143565b611859602083018761120a565b6118666040830186611143565b6118736060830185611143565b6118806080830184611143565b969550505050505056fea26469706673582212207827d2c7274ea4285c2be0ad69367faedafef89e585a20422195340fb5c4970764736f6c63430008150033",
  "immutableReferences": {},
  "source": "// SPDX-License-Identifier: MIT\npragma solidity ^0.8.13;\n\nimport \"@openzeppelin/contracts/token/ERC721/IERC721.sol\";\nimport \"@openzeppelin/contracts/token/ERC721/utils/ERC721Holder.sol\";\nimport \"@openzeppelin/contracts/token/ERC20/IERC20.sol\";\nimport \"@openzeppelin/contracts/utils/ReentrancyGuard.sol\";\nimport \"@openzeppelin/contracts/access/Ownable.sol\";\n\ncontract LendingBorrowing is ReentrancyGuard, Ownable, ERC721Holder {\n    struct Loan {\n        address borrower;\n        uint256 amount;\n        uint256 interestRate;\n        uint256 duration;\n        uint256 startTime;\n        bool repaid;\n    }\n\n    // State variables\n    IERC20 public stablecoin;\n    IERC721 public nft;\n    uint256 public loanCounter;\n    mapping(uint256 => Loan) public loans;\n    mapping(uint256 => uint256) public nftCollateral;\n\n    event LoanRequested(uint256 loanId, address borrower, uint256 amount, uint256 interestRate, uint256 duration);\n    event LoanRepaid(uint256 loanId);\n    event NFTCollateralized(uint256 loanId, uint256 tokenId);\n    event NFTReleased(uint256 loanId, uint256 tokenId);\n\n    constructor(address _stablecoin, address _nft) Ownable(address(this)) {\n        stablecoin = IERC20(_stablecoin);\n        nft = IERC721(_nft);\n    }\n\n    function requestLoan(uint256 _amount, uint256 _interestRate, uint256 _duration) external nonReentrant {\n        require(_amount > 0, \"Amount must be greater than 0\");\n        require(_interestRate > 0, \"Interest rate must be greater than 0\");\n        require(_duration > 0, \"Duration must be greater than 0\");\n\n        //TODO: request must come from owner\n        //TODO: check if collaterized before giving loan\n\n        stablecoin.transferFrom(msg.sender, address(this), _amount);\n\n        loanCounter++;\n        loans[loanCounter] = Loan({\n            borrower: msg.sender,\n            amount: _amount,\n            interestRate: _interestRate,\n            duration: _duration,\n            startTime: block.timestamp,\n            repaid: false\n        });\n\n        emit LoanRequested(loanCounter, msg.sender, _amount, _interestRate, _duration);\n    }\n\n    function collateralizeNFT(uint256 _loanId, uint256 _tokenId) external nonReentrant {\n        Loan storage loan = loans[_loanId];\n        require(loan.borrower == msg.sender, \"Not the borrower\");\n        require(!loan.repaid, \"Loan already repaid\");\n\n        //TODO: get loan value as 1/3rd value of NFT\n        nft.safeTransferFrom(msg.sender, address(this), _tokenId);\n        nftCollateral[_loanId] = _tokenId;\n\n        emit NFTCollateralized(_loanId, _tokenId);\n    }\n\n    function repayLoan(uint256 _loanId) external nonReentrant {\n        Loan storage loan = loans[_loanId];\n        require(loan.borrower == msg.sender, \"Not the borrower\");\n        require(!loan.repaid, \"Loan already repaid\");\n        require(block.timestamp <= loan.startTime + loan.duration, \"Loan duration exceeded\");\n\n        uint256 totalRepayment = loan.amount + (loan.amount * loan.interestRate / 100);\n        stablecoin.transferFrom(msg.sender, address(this), totalRepayment);\n\n        loan.repaid = true;\n        uint256 tokenId = nftCollateral[_loanId];\n        delete nftCollateral[_loanId];\n\n        nft.safeTransferFrom(address(this), msg.sender, tokenId);\n        emit LoanRepaid(_loanId);\n        emit NFTReleased(_loanId, tokenId);\n    }\n\n    function getLoanDetails(uint256 _loanId)\n        external\n        view\n        returns (\n            address borrower,\n            uint256 amount,\n            uint256 interestRate,\n            uint256 duration,\n            uint256 startTime,\n            bool repaid\n        )\n    {\n        return (\n            loans[_loanId].borrower,\n            loans[_loanId].amount,\n            loans[_loanId].interestRate,\n            loans[_loanId].duration,\n            loans[_loanId].startTime,\n            loans[_loanId].repaid\n        );\n    }\n}\n",
  "sourcePath": "/Users/adaorajiaku/SandBox/consensys-poc-dapp/contracts/LendingBorrowing.sol",
  "compiler": {
    "name": "solc",
    "version": "0.8.21+commit.d9974bed.Emscripten.clang"
  },
  "schemaVersion": "3.4.16",
  "updatedAt": "2024-08-19T01:00:35.056Z",
  "devdoc": {
    "errors": {
      "OwnableInvalidOwner(address)": [
        {
          "details": "The owner is not a valid owner account. (eg. `address(0)`)"
        }
      ],
      "OwnableUnauthorizedAccount(address)": [
        {
          "details": "The caller account is not authorized to perform an operation."
        }
      ],
      "ReentrancyGuardReentrantCall()": [
        {
          "details": "Unauthorized reentrant call."
        }
      ]
    },
    "kind": "dev",
    "methods": {
      "onERC721Received(address,address,uint256,bytes)": {
        "details": "See {IERC721Receiver-onERC721Received}. Always returns `IERC721Receiver.onERC721Received.selector`."
      },
      "owner()": {
        "details": "Returns the address of the current owner."
      },
      "renounceOwnership()": {
        "details": "Leaves the contract without owner. It will not be possible to call `onlyOwner` functions. Can only be called by the current owner. NOTE: Renouncing ownership will leave the contract without an owner, thereby disabling any functionality that is only available to the owner."
      },
      "transferOwnership(address)": {
        "details": "Transfers ownership of the contract to a new account (`newOwner`). Can only be called by the current owner."
      }
    },
    "version": 1
  },
  "userdoc": {
    "kind": "user",
    "methods": {},
    "version": 1
  }
}