{
  "contractName": "MyContract",
  "abi": [
    {
      "inputs": [],
      "name": "shouldAlwaysBeZero",
      "outputs": [
        {
          "internalType": "uint256",
          "name": "",
          "type": "uint256"
        }
      ],
      "stateMutability": "view",
      "type": "function"
    },
    {
      "inputs": [
        {
          "internalType": "uint256",
          "name": "data",
          "type": "uint256"
        }
      ],
      "name": "doStuff",
      "outputs": [],
      "stateMutability": "nonpayable",
      "type": "function"
    }
  ],
  "bytecode": "0x60806040525f80555f600155348015610016575f80fd5b50610163806100245f395ff3fe608060405234801561000f575f80fd5b5060043610610034575f3560e01c806323bad5cd14610038578063887ee7c114610054575b5f80fd5b610052600480360381019061004d91906100da565b610072565b005b61005c61009e565b6040516100699190610114565b60405180910390f35b600281036100825760015f819055505b6007600154036100945760015f819055505b8060018190555050565b5f5481565b5f80fd5b5f819050919050565b6100b9816100a7565b81146100c3575f80fd5b50565b5f813590506100d4816100b0565b92915050565b5f602082840312156100ef576100ee6100a3565b5b5f6100fc848285016100c6565b91505092915050565b61010e816100a7565b82525050565b5f6020820190506101275f830184610105565b9291505056fea26469706673582212200179fdb567783f9504046918f79377096c058908581dd18dba129fb3164a3ce364736f6c63430008150033",
  "immutableReferences": {},
  "source": "// SPDX-License-Identifier: MIT\npragma solidity ^0.8.13;\n\ncontract MyContract {\n    uint256 public shouldAlwaysBeZero = 0;\n\n    uint256 private hiddenValue = 0;\n\n    function doStuff(uint256 data) public {\n        if (data == 2) {\n            shouldAlwaysBeZero = 1;\n        }\n        if (hiddenValue == 7) {\n            shouldAlwaysBeZero = 1;\n        }\n        hiddenValue = data;\n    }\n}\n",
  "sourcePath": "/Users/adaorajiaku/SandBox/consensys-poc-dapp/contracts/MyContract.sol",
  "compiler": {
    "name": "solc",
    "version": "0.8.21+commit.d9974bed.Emscripten.clang"
  },
  "schemaVersion": "3.4.16",
  "updatedAt": "2024-08-19T01:00:35.063Z",
  "devdoc": {
    "kind": "dev",
    "methods": {},
    "version": 1
  },
  "userdoc": {
    "kind": "user",
    "methods": {},
    "version": 1
  }
}